{
  "_format": "hh-sol-artifact-1",
  "contractName": "ProbablyNothing",
  "sourceName": "contracts/ProbablyNothing.sol",
  "abi": [
    {
      "inputs": [],
      "stateMutability": "nonpayable",
      "type": "constructor"
    },
    {
      "anonymous": false,
      "inputs": [
        {
          "indexed": true,
          "internalType": "address",
          "name": "owner",
          "type": "address"
        },
        {
          "indexed": true,
          "internalType": "address",
          "name": "approved",
          "type": "address"
        },
        {
          "indexed": true,
          "internalType": "uint256",
          "name": "tokenId",
          "type": "uint256"
        }
      ],
      "name": "Approval",
      "type": "event"
    },
    {
      "anonymous": false,
      "inputs": [
        {
          "indexed": true,
          "internalType": "address",
          "name": "owner",
          "type": "address"
        },
        {
          "indexed": true,
          "internalType": "address",
          "name": "operator",
          "type": "address"
        },
        {
          "indexed": false,
          "internalType": "bool",
          "name": "approved",
          "type": "bool"
        }
      ],
      "name": "ApprovalForAll",
      "type": "event"
    },
    {
      "anonymous": false,
      "inputs": [
        {
          "indexed": true,
          "internalType": "address",
          "name": "from",
          "type": "address"
        },
        {
          "indexed": true,
          "internalType": "address",
          "name": "to",
          "type": "address"
        },
        {
          "indexed": true,
          "internalType": "uint256",
          "name": "tokenId",
          "type": "uint256"
        }
      ],
      "name": "Transfer",
      "type": "event"
    },
    {
      "inputs": [
        {
          "internalType": "address",
          "name": "to",
          "type": "address"
        },
        {
          "internalType": "uint256",
          "name": "tokenId",
          "type": "uint256"
        }
      ],
      "name": "approve",
      "outputs": [],
      "stateMutability": "nonpayable",
      "type": "function"
    },
    {
      "inputs": [
        {
          "internalType": "address",
          "name": "owner",
          "type": "address"
        }
      ],
      "name": "balanceOf",
      "outputs": [
        {
          "internalType": "uint256",
          "name": "",
          "type": "uint256"
        }
      ],
      "stateMutability": "view",
      "type": "function"
    },
    {
      "inputs": [
        {
          "internalType": "uint256",
          "name": "tokenId",
          "type": "uint256"
        }
      ],
      "name": "getApproved",
      "outputs": [
        {
          "internalType": "address",
          "name": "",
          "type": "address"
        }
      ],
      "stateMutability": "view",
      "type": "function"
    },
    {
      "inputs": [
        {
          "internalType": "address",
          "name": "owner",
          "type": "address"
        },
        {
          "internalType": "address",
          "name": "operator",
          "type": "address"
        }
      ],
      "name": "isApprovedForAll",
      "outputs": [
        {
          "internalType": "bool",
          "name": "",
          "type": "bool"
        }
      ],
      "stateMutability": "view",
      "type": "function"
    },
    {
      "inputs": [],
      "name": "makeAnEpicNFT",
      "outputs": [],
      "stateMutability": "nonpayable",
      "type": "function"
    },
    {
      "inputs": [],
      "name": "name",
      "outputs": [
        {
          "internalType": "string",
          "name": "",
          "type": "string"
        }
      ],
      "stateMutability": "view",
      "type": "function"
    },
    {
      "inputs": [
        {
          "internalType": "uint256",
          "name": "tokenId",
          "type": "uint256"
        }
      ],
      "name": "ownerOf",
      "outputs": [
        {
          "internalType": "address",
          "name": "",
          "type": "address"
        }
      ],
      "stateMutability": "view",
      "type": "function"
    },
    {
      "inputs": [
        {
          "internalType": "uint256",
          "name": "tokenId",
          "type": "uint256"
        }
      ],
      "name": "pickColor",
      "outputs": [
        {
          "internalType": "string",
          "name": "",
          "type": "string"
        }
      ],
      "stateMutability": "view",
      "type": "function"
    },
    {
      "inputs": [
        {
          "internalType": "address",
          "name": "from",
          "type": "address"
        },
        {
          "internalType": "address",
          "name": "to",
          "type": "address"
        },
        {
          "internalType": "uint256",
          "name": "tokenId",
          "type": "uint256"
        }
      ],
      "name": "safeTransferFrom",
      "outputs": [],
      "stateMutability": "nonpayable",
      "type": "function"
    },
    {
      "inputs": [
        {
          "internalType": "address",
          "name": "from",
          "type": "address"
        },
        {
          "internalType": "address",
          "name": "to",
          "type": "address"
        },
        {
          "internalType": "uint256",
          "name": "tokenId",
          "type": "uint256"
        },
        {
          "internalType": "bytes",
          "name": "_data",
          "type": "bytes"
        }
      ],
      "name": "safeTransferFrom",
      "outputs": [],
      "stateMutability": "nonpayable",
      "type": "function"
    },
    {
      "inputs": [
        {
          "internalType": "address",
          "name": "operator",
          "type": "address"
        },
        {
          "internalType": "bool",
          "name": "approved",
          "type": "bool"
        }
      ],
      "name": "setApprovalForAll",
      "outputs": [],
      "stateMutability": "nonpayable",
      "type": "function"
    },
    {
      "inputs": [
        {
          "internalType": "bytes4",
          "name": "interfaceId",
          "type": "bytes4"
        }
      ],
      "name": "supportsInterface",
      "outputs": [
        {
          "internalType": "bool",
          "name": "",
          "type": "bool"
        }
      ],
      "stateMutability": "view",
      "type": "function"
    },
    {
      "inputs": [],
      "name": "symbol",
      "outputs": [
        {
          "internalType": "string",
          "name": "",
          "type": "string"
        }
      ],
      "stateMutability": "view",
      "type": "function"
    },
    {
      "inputs": [
        {
          "internalType": "uint256",
          "name": "tokenId",
          "type": "uint256"
        }
      ],
      "name": "tokenURI",
      "outputs": [
        {
          "internalType": "string",
          "name": "",
          "type": "string"
        }
      ],
      "stateMutability": "view",
      "type": "function"
    },
    {
      "inputs": [
        {
          "internalType": "address",
          "name": "from",
          "type": "address"
        },
        {
          "internalType": "address",
          "name": "to",
          "type": "address"
        },
        {
          "internalType": "uint256",
          "name": "tokenId",
          "type": "uint256"
        }
      ],
      "name": "transferFrom",
      "outputs": [],
      "stateMutability": "nonpayable",
      "type": "function"
    }
  ],
  "bytecode": "0x60806040526040518060c001604052806040518060400160405280600781526020017f234639414139450000000000000000000000000000000000000000000000000081525081526020016040518060400160405280600781526020017f234646453832320000000000000000000000000000000000000000000000000081525081526020016040518060400160405280600781526020017f233139433644450000000000000000000000000000000000000000000000000081525081526020016040518060400160405280600781526020017f234241454542410000000000000000000000000000000000000000000000000081525081526020016040518060400160405280600781526020017f233938394546460000000000000000000000000000000000000000000000000081525081526020016040518060400160405280600781526020017f23424439384646000000000000000000000000000000000000000000000000008152508152506008906006620001819291906200034d565b503480156200018f57600080fd5b506040518060400160405280600f81526020017f50726f6261626c79204e6f7468696e00000000000000000000000000000000008152506040518060400160405280600681526020017f5351554152450000000000000000000000000000000000000000000000000000815250816000908051906020019062000214929190620003b4565b5080600190805190602001906200022d929190620003b4565b5050506200027b6040518060400160405280601481526020017f50726f6261626c79204e6f7468696e672e2e2e2e0000000000000000000000008152506200028160201b62000f1e1760201c565b620005ff565b620003218160405160240162000298919062000513565b6040516020818303038152906040527f41304fac000000000000000000000000000000000000000000000000000000007bffffffffffffffffffffffffffffffffffffffffffffffffffffffff19166020820180517bffffffffffffffffffffffffffffffffffffffffffffffffffffffff83818316178352505050506200032460201b60201c565b50565b60008151905060006a636f6e736f6c652e6c6f679050602083016000808483855afa5050505050565b828054828255906000526020600020908101928215620003a1579160200282015b82811115620003a05782518290805190602001906200038f929190620003b4565b50916020019190600101906200036e565b5b509050620003b0919062000445565b5090565b828054620003c29062000589565b90600052602060002090601f016020900481019282620003e6576000855562000432565b82601f106200040157805160ff191683800117855562000432565b8280016001018555821562000432579182015b828111156200043157825182559160200191906001019062000414565b5b5090506200044191906200046d565b5090565b5b808211156200046957600081816200045f91906200048c565b5060010162000446565b5090565b5b80821115620004885760008160009055506001016200046e565b5090565b5080546200049a9062000589565b6000825580601f10620004ae5750620004cf565b601f016020900490600052602060002090810190620004ce91906200046d565b5b50565b6000620004df8262000537565b620004eb818562000542565b9350620004fd81856020860162000553565b6200050881620005ee565b840191505092915050565b600060208201905081810360008301526200052f8184620004d2565b905092915050565b600081519050919050565b600082825260208201905092915050565b60005b838110156200057357808201518184015260208101905062000556565b8381111562000583576000848401525b50505050565b60006002820490506001821680620005a257607f821691505b60208210811415620005b957620005b8620005bf565b5b50919050565b7f4e487b7100000000000000000000000000000000000000000000000000000000600052602260045260246000fd5b6000601f19601f8301169050919050565b61345f806200060f6000396000f3fe608060405234801561001057600080fd5b50600436106100f55760003560e01c806370a0823111610097578063b88d4fde11610066578063b88d4fde14610296578063c87b56dd146102b2578063de9d132f146102e2578063e985e9c5146102ec576100f5565b806370a08231146101fc57806395d89b411461022c57806398260c8d1461024a578063a22cb4651461027a576100f5565b8063095ea7b3116100d3578063095ea7b31461017857806323b872dd1461019457806342842e0e146101b05780636352211e146101cc576100f5565b806301ffc9a7146100fa57806306fdde031461012a578063081812fc14610148575b600080fd5b610114600480360381019061010f919061217e565b61031c565b6040516101219190612b64565b60405180910390f35b6101326103fe565b60405161013f9190612b7f565b60405180910390f35b610162600480360381019061015d91906121d0565b610490565b60405161016f9190612afd565b60405180910390f35b610192600480360381019061018d9190612142565b610515565b005b6101ae60048036038101906101a9919061203c565b61062d565b005b6101ca60048036038101906101c5919061203c565b61068d565b005b6101e660048036038101906101e191906121d0565b6106ad565b6040516101f39190612afd565b60405180910390f35b61021660048036038101906102119190611fd7565b61075f565b6040516102239190612ddf565b60405180910390f35b610234610817565b6040516102419190612b7f565b60405180910390f35b610264600480360381019061025f91906121d0565b6108a9565b6040516102719190612b7f565b60405180910390f35b610294600480360381019061028f9190612106565b6109a7565b005b6102b060048036038101906102ab919061208b565b610b28565b005b6102cc60048036038101906102c791906121d0565b610b8a565b6040516102d99190612b7f565b60405180910390f35b6102ea610cdc565b005b61030660048036038101906103019190612000565b610e8a565b6040516103139190612b64565b60405180910390f35b60007f80ac58cd000000000000000000000000000000000000000000000000000000007bffffffffffffffffffffffffffffffffffffffffffffffffffffffff1916827bffffffffffffffffffffffffffffffffffffffffffffffffffffffff191614806103e757507f5b5e139f000000000000000000000000000000000000000000000000000000007bffffffffffffffffffffffffffffffffffffffffffffffffffffffff1916827bffffffffffffffffffffffffffffffffffffffffffffffffffffffff1916145b806103f757506103f682610fb7565b5b9050919050565b60606000805461040d90613069565b80601f016020809104026020016040519081016040528092919081815260200182805461043990613069565b80156104865780601f1061045b57610100808354040283529160200191610486565b820191906000526020600020905b81548152906001019060200180831161046957829003601f168201915b5050505050905090565b600061049b82611021565b6104da576040517f08c379a00000000000000000000000000000000000000000000000000000000081526004016104d190612d3f565b60405180910390fd5b6004600083815260200190815260200160002060009054906101000a900473ffffffffffffffffffffffffffffffffffffffff169050919050565b6000610520826106ad565b90508073ffffffffffffffffffffffffffffffffffffffff168373ffffffffffffffffffffffffffffffffffffffff161415610591576040517f08c379a000000000000000000000000000000000000000000000000000000000815260040161058890612d9f565b60405180910390fd5b8073ffffffffffffffffffffffffffffffffffffffff166105b061108d565b73ffffffffffffffffffffffffffffffffffffffff1614806105df57506105de816105d961108d565b610e8a565b5b61061e576040517f08c379a000000000000000000000000000000000000000000000000000000000815260040161061590612c7f565b60405180910390fd5b6106288383611095565b505050565b61063e61063861108d565b8261114e565b61067d576040517f08c379a000000000000000000000000000000000000000000000000000000000815260040161067490612dbf565b60405180910390fd5b61068883838361122c565b505050565b6106a883838360405180602001604052806000815250610b28565b505050565b6000806002600084815260200190815260200160002060009054906101000a900473ffffffffffffffffffffffffffffffffffffffff169050600073ffffffffffffffffffffffffffffffffffffffff168173ffffffffffffffffffffffffffffffffffffffff161415610756576040517f08c379a000000000000000000000000000000000000000000000000000000000815260040161074d90612cbf565b60405180910390fd5b80915050919050565b60008073ffffffffffffffffffffffffffffffffffffffff168273ffffffffffffffffffffffffffffffffffffffff1614156107d0576040517f08c379a00000000000000000000000000000000000000000000000000000000081526004016107c790612c9f565b60405180910390fd5b600360008373ffffffffffffffffffffffffffffffffffffffff1673ffffffffffffffffffffffffffffffffffffffff168152602001908152602001600020549050919050565b60606001805461082690613069565b80601f016020809104026020016040519081016040528092919081815260200182805461085290613069565b801561089f5780601f106108745761010080835404028352916020019161089f565b820191906000526020600020905b81548152906001019060200180831161088257829003601f168201915b5050505050905090565b60606000829050600681101561098e57600881815481106108f3577f4e487b7100000000000000000000000000000000000000000000000000000000600052603260045260246000fd5b90600052602060002001805461090890613069565b80601f016020809104026020016040519081016040528092919081815260200182805461093490613069565b80156109815780601f1061095657610100808354040283529160200191610981565b820191906000526020600020905b81548152906001019060200180831161096457829003601f168201915b50505050509150506109a2565b604051806020016040528060008152509150505b919050565b6109af61108d565b73ffffffffffffffffffffffffffffffffffffffff168273ffffffffffffffffffffffffffffffffffffffff161415610a1d576040517f08c379a0000000000000000000000000000000000000000000000000000000008152600401610a1490612c3f565b60405180910390fd5b8060056000610a2a61108d565b73ffffffffffffffffffffffffffffffffffffffff1673ffffffffffffffffffffffffffffffffffffffff16815260200190815260200160002060008473ffffffffffffffffffffffffffffffffffffffff1673ffffffffffffffffffffffffffffffffffffffff16815260200190815260200160002060006101000a81548160ff0219169083151502179055508173ffffffffffffffffffffffffffffffffffffffff16610ad761108d565b73ffffffffffffffffffffffffffffffffffffffff167f17307eab39ab6107e8899845ad3d59bd9653f200f220920489ca2b5937696c3183604051610b1c9190612b64565b60405180910390a35050565b610b39610b3361108d565b8361114e565b610b78576040517f08c379a0000000000000000000000000000000000000000000000000000000008152600401610b6f90612dbf565b60405180910390fd5b610b8484848484611488565b50505050565b6060610b9582611021565b610bd4576040517f08c379a0000000000000000000000000000000000000000000000000000000008152600401610bcb90612d1f565b60405180910390fd5b6000600660008481526020019081526020016000208054610bf490613069565b80601f0160208091040260200160405190810160405280929190818152602001828054610c2090613069565b8015610c6d5780601f10610c4257610100808354040283529160200191610c6d565b820191906000526020600020905b815481529060010190602001808311610c5057829003601f168201915b505050505090506000610c7e6114e4565b9050600081511415610c94578192505050610cd7565b600082511115610cc9578082604051602001610cb1929190612a43565b60405160208183030381529060405292505050610cd7565b610cd2846114fb565b925050505b919050565b600060405180610120016040528060e6815260200161334460e69139905060006040518060c0016040528060a0815260200161323f60a0913990506000610d2360076115a2565b90506000610d30826108a9565b90506000848285604051602001610d4993929190612a67565b6040516020818303038152906040529050610d6381610f1e565b6000610d95610d71836115b0565b604051602001610d819190612a98565b6040516020818303038152906040526115b0565b9050600081604051602001610daa9190612adb565b6040516020818303038152906040529050610df96040518060400160405280601581526020017f0a2d2d2d2d2d2d2d2d2d2d2d2d2d2d2d2d2d2d2d2d0000000000000000000000815250610f1e565b610e0281610f1e565b610e406040518060400160405280601581526020017f2d2d2d2d2d2d2d2d2d2d2d2d2d2d2d2d2d2d2d2d0a0000000000000000000000815250610f1e565b610e4a338661176e565b610e54858261178c565b610e5e6007611800565b610e816040518060600160405280602581526020016132df602591398633611816565b50505050505050565b6000600560008473ffffffffffffffffffffffffffffffffffffffff1673ffffffffffffffffffffffffffffffffffffffff16815260200190815260200160002060008373ffffffffffffffffffffffffffffffffffffffff1673ffffffffffffffffffffffffffffffffffffffff16815260200190815260200160002060009054906101000a900460ff16905092915050565b610fb481604051602401610f329190612b7f565b6040516020818303038152906040527f41304fac000000000000000000000000000000000000000000000000000000007bffffffffffffffffffffffffffffffffffffffffffffffffffffffff19166020820180517bffffffffffffffffffffffffffffffffffffffffffffffffffffffff83818316178352505050506118b5565b50565b60007f01ffc9a7000000000000000000000000000000000000000000000000000000007bffffffffffffffffffffffffffffffffffffffffffffffffffffffff1916827bffffffffffffffffffffffffffffffffffffffffffffffffffffffff1916149050919050565b60008073ffffffffffffffffffffffffffffffffffffffff166002600084815260200190815260200160002060009054906101000a900473ffffffffffffffffffffffffffffffffffffffff1673ffffffffffffffffffffffffffffffffffffffff1614159050919050565b600033905090565b816004600083815260200190815260200160002060006101000a81548173ffffffffffffffffffffffffffffffffffffffff021916908373ffffffffffffffffffffffffffffffffffffffff160217905550808273ffffffffffffffffffffffffffffffffffffffff16611108836106ad565b73ffffffffffffffffffffffffffffffffffffffff167f8c5be1e5ebec7d5bd14f71427d1e84f3dd0314c0f7b2291e5b200ac8c7c3b92560405160405180910390a45050565b600061115982611021565b611198576040517f08c379a000000000000000000000000000000000000000000000000000000000815260040161118f90612c5f565b60405180910390fd5b60006111a3836106ad565b90508073ffffffffffffffffffffffffffffffffffffffff168473ffffffffffffffffffffffffffffffffffffffff16148061121257508373ffffffffffffffffffffffffffffffffffffffff166111fa84610490565b73ffffffffffffffffffffffffffffffffffffffff16145b8061122357506112228185610e8a565b5b91505092915050565b8273ffffffffffffffffffffffffffffffffffffffff1661124c826106ad565b73ffffffffffffffffffffffffffffffffffffffff16146112a2576040517f08c379a000000000000000000000000000000000000000000000000000000000815260040161129990612d5f565b60405180910390fd5b600073ffffffffffffffffffffffffffffffffffffffff168273ffffffffffffffffffffffffffffffffffffffff161415611312576040517f08c379a000000000000000000000000000000000000000000000000000000000815260040161130990612c1f565b60405180910390fd5b61131d8383836118de565b611328600082611095565b6001600360008573ffffffffffffffffffffffffffffffffffffffff1673ffffffffffffffffffffffffffffffffffffffff16815260200190815260200160002060008282546113789190612f7f565b925050819055506001600360008473ffffffffffffffffffffffffffffffffffffffff1673ffffffffffffffffffffffffffffffffffffffff16815260200190815260200160002060008282546113cf9190612e9e565b92505081905550816002600083815260200190815260200160002060006101000a81548173ffffffffffffffffffffffffffffffffffffffff021916908373ffffffffffffffffffffffffffffffffffffffff160217905550808273ffffffffffffffffffffffffffffffffffffffff168473ffffffffffffffffffffffffffffffffffffffff167fddf252ad1be2c89b69c2b068fc378daa952ba7f163c4a11628f55a4df523b3ef60405160405180910390a4505050565b61149384848461122c565b61149f848484846118e3565b6114de576040517f08c379a00000000000000000000000000000000000000000000000000000000081526004016114d590612bdf565b60405180910390fd5b50505050565b606060405180602001604052806000815250905090565b606061150682611021565b611545576040517f08c379a000000000000000000000000000000000000000000000000000000000815260040161153c90612d7f565b60405180910390fd5b600061154f6114e4565b9050600081511161156f576040518060200160405280600081525061159a565b8061157984611a7a565b60405160200161158a929190612a43565b6040516020818303038152906040525b915050919050565b600081600001549050919050565b606060008251905060008114156115d95760405180602001604052806000815250915050611769565b600060036002836115ea9190612e9e565b6115f49190612ef4565b60046116009190612f25565b905060006020826116119190612e9e565b67ffffffffffffffff811115611650577f4e487b7100000000000000000000000000000000000000000000000000000000600052604160045260246000fd5b6040519080825280601f01601f1916602001820160405280156116825781602001600182028036833780820191505090505b5090506000604051806060016040528060408152602001613304604091399050600181016020830160005b868110156117265760038101905062ffffff818a015116603f8160121c168401518060081b905060ff603f83600c1c1686015116810190508060081b905060ff603f8360061c1686015116810190508060081b905060ff603f831686015116810190508060e01b905080845260048401935050506116ad565b50600386066001811461174057600281146117505761175b565b613d3d60f01b600283035261175b565b603d60f81b60018303525b508484525050819450505050505b919050565b611788828260405180602001604052806000815250611c27565b5050565b61179582611021565b6117d4576040517f08c379a00000000000000000000000000000000000000000000000000000000081526004016117cb90612cdf565b60405180910390fd5b806006600084815260200190815260200160002090805190602001906117fb929190611e63565b505050565b6001816000016000828254019250508190555050565b6118b083838360405160240161182e93929190612ba1565b6040516020818303038152906040527fe3849f79000000000000000000000000000000000000000000000000000000007bffffffffffffffffffffffffffffffffffffffffffffffffffffffff19166020820180517bffffffffffffffffffffffffffffffffffffffffffffffffffffffff83818316178352505050506118b5565b505050565b60008151905060006a636f6e736f6c652e6c6f679050602083016000808483855afa5050505050565b505050565b60006119048473ffffffffffffffffffffffffffffffffffffffff16611c82565b15611a6d578373ffffffffffffffffffffffffffffffffffffffff1663150b7a0261192d61108d565b8786866040518563ffffffff1660e01b815260040161194f9493929190612b18565b602060405180830381600087803b15801561196957600080fd5b505af192505050801561199a57506040513d601f19601f8201168201806040525081019061199791906121a7565b60015b611a1d573d80600081146119ca576040519150601f19603f3d011682016040523d82523d6000602084013e6119cf565b606091505b50600081511415611a15576040517f08c379a0000000000000000000000000000000000000000000000000000000008152600401611a0c90612bdf565b60405180910390fd5b805181602001fd5b63150b7a0260e01b7bffffffffffffffffffffffffffffffffffffffffffffffffffffffff1916817bffffffffffffffffffffffffffffffffffffffffffffffffffffffff191614915050611a72565b600190505b949350505050565b60606000821415611ac2576040518060400160405280600181526020017f30000000000000000000000000000000000000000000000000000000000000008152509050611c22565b600082905060005b60008214611af4578080611add9061309b565b915050600a82611aed9190612ef4565b9150611aca565b60008167ffffffffffffffff811115611b36577f4e487b7100000000000000000000000000000000000000000000000000000000600052604160045260246000fd5b6040519080825280601f01601f191660200182016040528015611b685781602001600182028036833780820191505090505b5090505b60008514611c1b57600182611b819190612f7f565b9150600a85611b9091906130e4565b6030611b9c9190612e9e565b60f81b818381518110611bd8577f4e487b7100000000000000000000000000000000000000000000000000000000600052603260045260246000fd5b60200101907effffffffffffffffffffffffffffffffffffffffffffffffffffffffffffff1916908160001a905350600a85611c149190612ef4565b9450611b6c565b8093505050505b919050565b611c318383611c95565b611c3e60008484846118e3565b611c7d576040517f08c379a0000000000000000000000000000000000000000000000000000000008152600401611c7490612bdf565b60405180910390fd5b505050565b600080823b905060008111915050919050565b600073ffffffffffffffffffffffffffffffffffffffff168273ffffffffffffffffffffffffffffffffffffffff161415611d05576040517f08c379a0000000000000000000000000000000000000000000000000000000008152600401611cfc90612cff565b60405180910390fd5b611d0e81611021565b15611d4e576040517f08c379a0000000000000000000000000000000000000000000000000000000008152600401611d4590612bff565b60405180910390fd5b611d5a600083836118de565b6001600360008473ffffffffffffffffffffffffffffffffffffffff1673ffffffffffffffffffffffffffffffffffffffff1681526020019081526020016000206000828254611daa9190612e9e565b92505081905550816002600083815260200190815260200160002060006101000a81548173ffffffffffffffffffffffffffffffffffffffff021916908373ffffffffffffffffffffffffffffffffffffffff160217905550808273ffffffffffffffffffffffffffffffffffffffff16600073ffffffffffffffffffffffffffffffffffffffff167fddf252ad1be2c89b69c2b068fc378daa952ba7f163c4a11628f55a4df523b3ef60405160405180910390a45050565b828054611e6f90613069565b90600052602060002090601f016020900481019282611e915760008555611ed8565b82601f10611eaa57805160ff1916838001178555611ed8565b82800160010185558215611ed8579182015b82811115611ed7578251825591602001919060010190611ebc565b5b509050611ee59190611ee9565b5090565b5b80821115611f02576000816000905550600101611eea565b5090565b6000611f19611f1484612e2b565b612dfa565b905082815260208101848484011115611f3157600080fd5b611f3c848285613027565b509392505050565b600081359050611f53816131e2565b92915050565b600081359050611f68816131f9565b92915050565b600081359050611f7d81613210565b92915050565b600081519050611f9281613210565b92915050565b600082601f830112611fa957600080fd5b8135611fb9848260208601611f06565b91505092915050565b600081359050611fd181613227565b92915050565b600060208284031215611fe957600080fd5b6000611ff784828501611f44565b91505092915050565b6000806040838503121561201357600080fd5b600061202185828601611f44565b925050602061203285828601611f44565b9150509250929050565b60008060006060848603121561205157600080fd5b600061205f86828701611f44565b935050602061207086828701611f44565b925050604061208186828701611fc2565b9150509250925092565b600080600080608085870312156120a157600080fd5b60006120af87828801611f44565b94505060206120c087828801611f44565b93505060406120d187828801611fc2565b925050606085013567ffffffffffffffff8111156120ee57600080fd5b6120fa87828801611f98565b91505092959194509250565b6000806040838503121561211957600080fd5b600061212785828601611f44565b925050602061213885828601611f59565b9150509250929050565b6000806040838503121561215557600080fd5b600061216385828601611f44565b925050602061217485828601611fc2565b9150509250929050565b60006020828403121561219057600080fd5b600061219e84828501611f6e565b91505092915050565b6000602082840312156121b957600080fd5b60006121c784828501611f83565b91505092915050565b6000602082840312156121e257600080fd5b60006121f084828501611fc2565b91505092915050565b61220281612fb3565b82525050565b61221181612fc5565b82525050565b600061222282612e5b565b61222c8185612e71565b935061223c818560208601613036565b612245816131d1565b840191505092915050565b600061225b82612e66565b6122658185612e82565b9350612275818560208601613036565b61227e816131d1565b840191505092915050565b600061229482612e66565b61229e8185612e93565b93506122ae818560208601613036565b80840191505092915050565b60006122c7604383612e93565b91507f222c20226465736372697074696f6e223a20224f6e65206d656d652e222c202260008301527f696d616765223a2022646174613a696d6167652f7376672b786d6c3b6261736560208301527f36342c00000000000000000000000000000000000000000000000000000000006040830152604382019050919050565b6000612353603283612e82565b91507f4552433732313a207472616e7366657220746f206e6f6e20455243373231526560008301527f63656976657220696d706c656d656e74657200000000000000000000000000006020830152604082019050919050565b60006123b9601c83612e82565b91507f4552433732313a20746f6b656e20616c7265616479206d696e746564000000006000830152602082019050919050565b60006123f9602483612e82565b91507f4552433732313a207472616e7366657220746f20746865207a65726f2061646460008301527f72657373000000000000000000000000000000000000000000000000000000006020830152604082019050919050565b600061245f601983612e82565b91507f4552433732313a20617070726f766520746f2063616c6c6572000000000000006000830152602082019050919050565b600061249f602c83612e82565b91507f4552433732313a206f70657261746f7220717565727920666f72206e6f6e657860008301527f697374656e7420746f6b656e00000000000000000000000000000000000000006020830152604082019050919050565b6000612505603883612e82565b91507f4552433732313a20617070726f76652063616c6c6572206973206e6f74206f7760008301527f6e6572206e6f7220617070726f76656420666f7220616c6c00000000000000006020830152604082019050919050565b600061256b602a83612e82565b91507f4552433732313a2062616c616e636520717565727920666f7220746865207a6560008301527f726f2061646472657373000000000000000000000000000000000000000000006020830152604082019050919050565b60006125d1602983612e82565b91507f4552433732313a206f776e657220717565727920666f72206e6f6e657869737460008301527f656e7420746f6b656e00000000000000000000000000000000000000000000006020830152604082019050919050565b6000612637602e83612e82565b91507f45524337323155524953746f726167653a2055524920736574206f66206e6f6e60008301527f6578697374656e7420746f6b656e0000000000000000000000000000000000006020830152604082019050919050565b600061269d600283612e93565b91507f227d0000000000000000000000000000000000000000000000000000000000006000830152600282019050919050565b60006126dd602083612e82565b91507f4552433732313a206d696e7420746f20746865207a65726f20616464726573736000830152602082019050919050565b600061271d603183612e82565b91507f45524337323155524953746f726167653a2055524920717565727920666f722060008301527f6e6f6e6578697374656e7420746f6b656e0000000000000000000000000000006020830152604082019050919050565b6000612783602c83612e82565b91507f4552433732313a20617070726f76656420717565727920666f72206e6f6e657860008301527f697374656e7420746f6b656e00000000000000000000000000000000000000006020830152604082019050919050565b60006127e9602983612e82565b91507f4552433732313a207472616e73666572206f6620746f6b656e2074686174206960008301527f73206e6f74206f776e00000000000000000000000000000000000000000000006020830152604082019050919050565b600061284f602f83612e82565b91507f4552433732314d657461646174613a2055524920717565727920666f72206e6f60008301527f6e6578697374656e7420746f6b656e00000000000000000000000000000000006020830152604082019050919050565b60006128b5600a83612e93565b91507f7b226e616d65223a2022000000000000000000000000000000000000000000006000830152600a82019050919050565b60006128f5602183612e82565b91507f4552433732313a20617070726f76616c20746f2063757272656e74206f776e6560008301527f72000000000000000000000000000000000000000000000000000000000000006020830152604082019050919050565b600061295b601083612e93565b91507f50726f6261626c79204e6f7468696e67000000000000000000000000000000006000830152601082019050919050565b600061299b601d83612e93565b91507f646174613a6170706c69636174696f6e2f6a736f6e3b6261736536342c0000006000830152601d82019050919050565b60006129db603183612e82565b91507f4552433732313a207472616e736665722063616c6c6572206973206e6f74206f60008301527f776e6572206e6f7220617070726f7665640000000000000000000000000000006020830152604082019050919050565b612a3d8161301d565b82525050565b6000612a4f8285612289565b9150612a5b8284612289565b91508190509392505050565b6000612a738286612289565b9150612a7f8285612289565b9150612a8b8284612289565b9150819050949350505050565b6000612aa3826128a8565b9150612aae8261294e565b9150612ab9826122ba565b9150612ac58284612289565b9150612ad082612690565b915081905092915050565b6000612ae68261298e565b9150612af28284612289565b915081905092915050565b6000602082019050612b1260008301846121f9565b92915050565b6000608082019050612b2d60008301876121f9565b612b3a60208301866121f9565b612b476040830185612a34565b8181036060830152612b598184612217565b905095945050505050565b6000602082019050612b796000830184612208565b92915050565b60006020820190508181036000830152612b998184612250565b905092915050565b60006060820190508181036000830152612bbb8186612250565b9050612bca6020830185612a34565b612bd760408301846121f9565b949350505050565b60006020820190508181036000830152612bf881612346565b9050919050565b60006020820190508181036000830152612c18816123ac565b9050919050565b60006020820190508181036000830152612c38816123ec565b9050919050565b60006020820190508181036000830152612c5881612452565b9050919050565b60006020820190508181036000830152612c7881612492565b9050919050565b60006020820190508181036000830152612c98816124f8565b9050919050565b60006020820190508181036000830152612cb88161255e565b9050919050565b60006020820190508181036000830152612cd8816125c4565b9050919050565b60006020820190508181036000830152612cf88161262a565b9050919050565b60006020820190508181036000830152612d18816126d0565b9050919050565b60006020820190508181036000830152612d3881612710565b9050919050565b60006020820190508181036000830152612d5881612776565b9050919050565b60006020820190508181036000830152612d78816127dc565b9050919050565b60006020820190508181036000830152612d9881612842565b9050919050565b60006020820190508181036000830152612db8816128e8565b9050919050565b60006020820190508181036000830152612dd8816129ce565b9050919050565b6000602082019050612df46000830184612a34565b92915050565b6000604051905081810181811067ffffffffffffffff82111715612e2157612e206131a2565b5b8060405250919050565b600067ffffffffffffffff821115612e4657612e456131a2565b5b601f19601f8301169050602081019050919050565b600081519050919050565b600081519050919050565b600082825260208201905092915050565b600082825260208201905092915050565b600081905092915050565b6000612ea98261301d565b9150612eb48361301d565b9250827fffffffffffffffffffffffffffffffffffffffffffffffffffffffffffffffff03821115612ee957612ee8613115565b5b828201905092915050565b6000612eff8261301d565b9150612f0a8361301d565b925082612f1a57612f19613144565b5b828204905092915050565b6000612f308261301d565b9150612f3b8361301d565b9250817fffffffffffffffffffffffffffffffffffffffffffffffffffffffffffffffff0483118215151615612f7457612f73613115565b5b828202905092915050565b6000612f8a8261301d565b9150612f958361301d565b925082821015612fa857612fa7613115565b5b828203905092915050565b6000612fbe82612ffd565b9050919050565b60008115159050919050565b60007fffffffff0000000000000000000000000000000000000000000000000000000082169050919050565b600073ffffffffffffffffffffffffffffffffffffffff82169050919050565b6000819050919050565b82818337600083830152505050565b60005b83811015613054578082015181840152602081019050613039565b83811115613063576000848401525b50505050565b6000600282049050600182168061308157607f821691505b6020821081141561309557613094613173565b5b50919050565b60006130a68261301d565b91507fffffffffffffffffffffffffffffffffffffffffffffffffffffffffffffffff8214156130d9576130d8613115565b5b600182019050919050565b60006130ef8261301d565b91506130fa8361301d565b92508261310a57613109613144565b5b828206905092915050565b7f4e487b7100000000000000000000000000000000000000000000000000000000600052601160045260246000fd5b7f4e487b7100000000000000000000000000000000000000000000000000000000600052601260045260246000fd5b7f4e487b7100000000000000000000000000000000000000000000000000000000600052602260045260246000fd5b7f4e487b7100000000000000000000000000000000000000000000000000000000600052604160045260246000fd5b6000601f19601f8301169050919050565b6131eb81612fb3565b81146131f657600080fd5b50565b61320281612fc5565b811461320d57600080fd5b50565b61321981612fd1565b811461322457600080fd5b50565b6132308161301d565b811461323b57600080fd5b5056fe27202f3e3c696d61676520687265663d2727206865696768743d27323030272077696474683d27323030272f3e3c7465787420783d273430252720793d273930252720636c6173733d27626173652720646f6d696e616e742d626173656c696e653d276d6964646c652720746578742d616e63686f723d276d6964646c65273e50726f6261626c79206e6f7468696e672e2e2e3c2f746578743e3c2f7376673e416e204e465420772f20494420257320686173206265656e206d696e74656420746f2025734142434445464748494a4b4c4d4e4f505152535455565758595a6162636465666768696a6b6c6d6e6f707172737475767778797a303132333435363738392b2f3c73766720786d6c6e733d27687474703a2f2f7777772e77332e6f72672f323030302f73766727207072657365727665417370656374526174696f3d27784d696e594d696e206d656574272076696577426f783d273020302033353020333530273e3c7374796c653e2e62617365207b2066696c6c3a20626c61636b3b20666f6e742d66616d696c793a2073657269663b20666f6e742d73697a653a20333070783b20666f6e742d7765696768743a203930303b20207d3c2f7374796c653e3c726563742077696474683d273130302527206865696768743d2731303025272066696c6c3d27a2646970667358221220ee66a36d1ba63057cc869d197e922552f9f1121060d157bc7dc9de1fe9a70a9664736f6c63430008000033",
  "linkReferences": {},
  "deployedLinkReferences": {}
}